:02000002B0004C
:1040000000400B0046C30B00000006000D00050237
:08401000040139180000000052
:044018008CBB0B0052
:10401C0081F0004102E000BF83F0004330B54FEA6D
:10402C0041044FEA430594EA050F08BF90EA020FDA
:10403C001FBF54EA000C55EA020C7FEA645C7FEA6D
:10404C00655C00F0E2804FEA5454D4EB5555B8BF90
:10405C006D420CDD2C4480EA020281EA030382EA01
:10406C00000083EA010180EA020281EA0303362D93
:10407C0088BF30BD11F0004F4FEA01314FF4801C66
:10408C004CEA113102D0404261EB410113F0004F78
:10409C004FEA03334CEA133302D0524263EB43032F
:1040AC0094EA050F00F0A780A4F10104D5F1200ECD
:1040BC000DDB02FA0EFC22FA05F2801841F1000128
:1040CC0003FA0EF2801843FA05F359410EE0A5F1FC
:1040DC0020050EF1200E012A03FA0EFC28BF4CF02D
:1040EC00020C43FA05F3C01851EBE37101F00045E3
:1040FC0007D54FF0000EDCF1000C7EEB00006EEBF0
:10410C000101B1F5801F1BD3B1F5001F0CD3490879
:10411C005FEA30004FEA3C0C04F101044FEA4452D0
:10412C0012F5800F80F09A80BCF1004F08BF5FEA57
:10413C00500C50F1000041EB045141EA050130BD37
:10414C005FEA4C0C404141EB0101013C28BFB1F549
:10415C00801FE9D291F0000F04BF01460020B1FA94
:10416C0081F308BF2033A3F10B03B3F120020CDA67
:10417C000C3208DD02F1140CC2F10C0201FA0CF045
:10418C0021FA02F10CE002F11402D8BFC2F1200CAA
:10419C0001FA02F120FA0CFCDCBF41EA0C01904060
:1041AC00E41AA2BF01EB0451294330BD6FEA0404A9
:1041BC001F3C1CDA0C340EDC04F11404C4F1200294
:1041CC0020FA04F001FA02F340EA030021FA04F3A6
:1041DC0045EA030130BDC4F10C04C4F1200220FAFD
:1041EC0002F001FA04F340EA0300294630BD21FA3B
:1041FC0004F0294630BD94F0000F83F4801306BF01
:10420C0081F480110134013D4EE77FEA645C18BFF4
:10421C007FEA655C29D094EA050F08BF90EA020F8B
:10422C0005D054EA000C04BF1946104630BD91EA83
:10423C00030F1EBF0021002030BD5FEA545C05D186
:10424C004000494128BF41F0004130BD14F58004C5
:10425C003CBF01F5801130BD01F0004545F0FE4139
:10426C0041F470014FF0000030BD7FEA645C1ABF6E
:10427C00194610467FEA655C1CBF0B46024650EAA5
:10428C00013406BF52EA033591EA030F41F40021D1
:10429C0030BD00BF90F0000F04BF0021704730B557
:1042AC004FF4806404F132044FF000054FF000012C
:1042BC0050E700BF90F0000F04BF0021704730B5ED
:1042CC004FF4806404F1320410F0004548BF4042C2
:1042DC004FF000013EE700BF42004FEAE2014FEA17
:1042EC0031014FEA02701FBF12F07F4393F07F4FF2
:1042FC0081F06051704732F07F4208BF704793F0F5
:10430C007F4F04BF41F40021704730B54FF4607407
:10431C0001F0004521F000411CE700BF50EA01020A
:10432C0008BF704730B54FF000050AE050EA0102B3
:10433C0008BF704730B511F0004502D5404261EB23
:10434C0041014FF4806404F132045FEA915C3FF464
:10435C00D8AE4FF003025FEADC0C18BF03325FEA01
:10436C00DC0C18BF033202EBDC02C2F1200300FAB2
:10437C0003FC20FA02F001FA03FE40EA0E0021FAD7
:10438C0002F11444BDE600BF70B54FF0FF0C4CF4C5
:10439C00E06C1CEA11541DBF1CEA135594EA0C0F77
:1043AC0095EA0C0F00F0DEF82C4481EA030621EAB2
:1043BC004C5123EA4C5350EA013518BF52EA0335ED
:1043CC0041F4801143F4801338D0A0FB02CE4FF09F
:1043DC000005E1FB02E506F00042E0FB03E54FF0CF
:1043EC000006E1FB03569CF0000F18BF4EF0010EC7
:1043FC00A4F1FF04B6F5007F64F5407404D25FEAC3
:10440C004E0E6D4146EB060642EAC62141EA555175
:10441C004FEAC52040EA5E504FEACE2EB4F1FD0CB7
:10442C0088BFBCF5E06F1ED8BEF1004F08BF5FEA35
:10443C00500E50F1000041EB045170BD06F00046E7
:10444C0046EA010140EA020081EA0301B4EB5C0494
:10445C00C2BFD4EB0C0541EA045170BD41F480118C
:10446C004FF0000E013C00F3AB8014F1360FDEBFB1
:10447C00002001F0004170BDC4F10004203C35DA8D
:10448C000C341BDC04F11404C4F1200500FA05F310
:10449C0020FA04F001FA05F240EA020001F00042B1
:1044AC0021F0004110EBD37021FA04F642EB060127
:1044BC005EEA430E08BF20EAD37070BDC4F10C0451
:1044CC00C4F1200500FA04F320FA05F001FA04F215
:1044DC0040EA020001F0004110EBD37041F1000101
:1044EC005EEA430E08BF20EAD37070BDC4F120050C
:1044FC0000FA05F24EEA020E20FA04F301FA05F274
:10450C0043EA020321FA04F001F0004121FA04F21B
:10451C0020EA020000EBD3705EEA430E08BF20EAEB
:10452C00D37070BD94F0000F0FD101F00046400025
:10453C0041EB010111F4801F08BF013CF7D041EAA7
:10454C00060195F0000F18BF704703F000465200AB
:10455C0043EB030313F4801F08BF013DF7D043EA7C
:10456C000603704794EA0C0F0CEA135518BF95EA32
:10457C000C0F0CD050EA410618BF52EA4306D1D1B9
:10458C0081EA030101F000414FF0000070BD50EAD8
:10459C00410606BF1046194652EA430619D094EA62
:1045AC000C0F02D150EA013613D195EA0C0F05D14C
:1045BC0052EA03361CBF104619460AD181EA0301A0
:1045CC0001F0004141F0FE4141F470014FF0000058
:1045DC0070BD41F0FE4141F4780170BD70B54FF0F3
:1045EC00FF0C4CF4E06C1CEA11541DBF1CEA135573
:1045FC0094EA0C0F95EA0C0F00F0A7F8A4EB050455
:10460C0081EA030E52EA03354FEA013100F088804B
:10461C004FEA03334FF0805545EA131343EA126314
:10462C004FEA022245EA111545EA10654FEA0026C9
:10463C000EF000419D4208BF964244F1FD0404F582
:10464C00407402D25B084FEA3202B61A65EB0305DE
:10465C005B084FEA32024FF480104FF4002CB6EB9B
:10466C00020E75EB030E22BFB61A754640EA0C001B
:10467C005B084FEA3202B6EB020E75EB030E22BF5B
:10468C00B61A754640EA5C005B084FEA3202B6EB9C
:10469C00020E75EB030E22BFB61A754640EA9C005B
:1046AC005B084FEA3202B6EB020E75EB030E22BF2B
:1046BC00B61A754640EADC0055EA060E18D04FEAE9
:1046CC00051545EA16754FEA06164FEAC30343EA89
:1046DC0052734FEAC2025FEA1C1CC0D111F4801F56
:1046EC000BD141EA00014FF000004FF0004CB6E74F
:1046FC0011F4801F04BF01430020B4F1FD0C88BFEE
:10470C00BCF5E06F3FF6AFAEB5EB030C04BFB6EBF8
:10471C00020C5FEA500C50F1000041EB045170BDEB
:10472C000EF0004E4EEA113114EB5C04C2BFD4EB18
:10473C000C0541EA045170BD41F480114FF0000E9C
:10474C00013C90E645EA060E8DE60CEA135594EA18
:10475C000C0F08BF95EA0C0F3FF43BAF94EA0C0F1B
:10476C000AD150EA01347FF434AF95EA0C0F7FF490
:10477C0025AF104619462CE795EA0C0F06D152EAE4
:10478C0003353FF4FDAE1046194622E750EA4106C8
:10479C0018BF52EA43067FF4C5AE50EA41047FF4D9
:1047AC000DAF52EA43057FF4EBAE12E74FF0FF3C3E
:1047BC0006E000BF4FF0010C02E000BF4FF0010C0F
:1047CC004DF804CD4FEA410C7FEA6C5C4FEA430C88
:1047DC0018BF7FEA6C5C1BD001B050EA410C0CBFD7
:1047EC0052EA430C91EA030F02BF90EA020F002039
:1047FC00704710F1000F91EA030F58BF994208BFA0
:10480C0090422CBFD8176FEAE37040F0010070475C
:10481C004FEA410C7FEA6C5C02D150EA013C07D1B3
:10482C004FEA430C7FEA6C5CD6D152EA033CD3D0FE
:10483C005DF8040B704700BF8446104662468C46F8
:10484C001946634600E000BF01B5FFF7B7FF00282B
:10485C0048BF10F1000F01BD4DF808EDFFF7F4FF54
:10486C000CBF012000205DF808FB00BF4DF808EDDF
:10487C00FFF7EAFF34BF012000205DF808FB00BF02
:10488C004DF808EDFFF7E0FF94BF012000205DF824
:10489C0008FB00BF4DF808EDFFF7CEFF94BF0120D9
:1048AC0000205DF808FB00BF4DF808EDFFF7C4FFD2
:1048BC0034BF012000205DF808FB00BF4FEA410C1B
:1048CC007FEA6C5C02D150EA013C0AD14FEA430CFE
:1048DC007FEA6C5C02D152EA033C02D14FF000003B
:1048EC0070474FF0010070474FEA410212F5001279
:1048FC0015D211D56FF47873B3EB625212D94FEA1B
:10490C00C12343F0004343EA505311F0004F23FA04
:10491C0002F018BF404270474FF00000704750EA59
:10492C00013005D111F0004008BF6FF00040704716
:10493C004FF00000704700BF4A0011D212F5001270
:10494C0011D20DD56FF47873B3EB62520ED44FEADB
:10495C00C12343F0004343EA505323FA02F070475B
:10496C004FF00000704750EA013002D14FF0FF3099
:10497C0070474FF000007047034613F8012B002AD4
:10498C00FBD1181A0138704709480A49884208B502
:10499C0005D0094A824202D0121A06F0CCFF074811
:1049AC00074A0021121A06F0D4FF014808BD00BFC7
:1049BC00D0DA0320A8C20B0040DB032040DB03202D
:1049CC00FCE7032070B5074E074C06F0CBF8A41B90
:1049DC00A4080025AC4200D170BD56F8043B9847A2
:1049EC000135F7E758C20B0084C20B0001F0FCB98B
:1049FC0008B501F0D9FABDE8084006F06BB805F02F
:104A0C0091BD05F08FBD05F095BD0078B0FA80F032
:104A1C00400970470123037070470000CB8B9FED5A
:104A2C001A7A9FED1A6A07EE900A00EE103AF8EE29
:104A3C00676AF8EE407A9FED160AB1F9203027EE3E
:104A4C00677A20EE670ADFED137AA6EE867AA6EE79
:104A5C00A70A06EE903A91F9223007EE903AF8EE5A
:104A6C00E77AB3EE006A67EE867A20EE000AF8EE7B
:104A7C00E66A67EE807A9FED080AE7EE267A87EE03
:104A8C00800AC1ED0E7A70470000803A0000803831
:104A9C0000000039000000370000A04591ED0E7AAF
:104AAC0091F92830DFED546A9FED546ADFED544ADA
:104ABC00F6EE007AE7EE276A07EE903AB1F9263067
:104ACC00F8EEE77A07EE103A67EEA67AB8EEC77AF8
:104ADC0067EEA67A27EE267A8B8CA7EE867ADFED28
:104AEC00497AB7EE006A27EE277AF0EE467AE7EEBF
:104AFC00247A06EE103AB8EE466A04EE100A26EE58
:104B0C00276AFDEEC67A17EE903A002B70D091F919
:104B1C002E309FED3D5A07EE103AB1F92C30B8EE1D
:104B2C00C77A05EE903A66EEA67A27EE057AF8EE8D
:104B3C00E55A27EE277A65EEA65AF0EE007AA5EE36
:104B4C00A77AB1F92A30F5EE007A27EE277A07EE2C
:104B5C00903ADFED2E6AB1F93230F8EEE77AA7EE33
:104B6C00A67AF8EE447ADFED2A6A76EEE76ADFED94
:104B7C00297AE7EE676A9FED287A26EE877ADFEDD1
:104B8C00276A87EE060A07EE103AB1F9303007EEC5
:104B9C00903A60EE266AB8EEC77AF8EEE77A26EE1F
:104BAC00A66A27EE007A67EEA47A66EE266A27EEEE
:104BBC00007A91F834309FED1A6A67EE807AE7EE4E
:104BCC00067A07EE103AB8EEC77A91F92F3027EE35
:104BDC00057AE6EE877A07EE103ADFED126AB8EE48
:104BEC00C77AE7EE267A9FED107AA7EE870A704710
:104BFC009FED0E0A704700BF00007AC70000803896
:104C0C00000000380000003600000037000080472C
:104C1C0000008049000080390050C3450000803BF3
:104C2C0000000030000000430000803D0000000048
:104C3C0091ED0E7ADFED317A0B8ADFED315AC7EE4A
:104C4C00276A07EE903A91F9143007EE103ABAEE53
:104C5C00EF7AF8EE677A27EE267AB3EE006AA7EEC3
:104C6C00867A91F9153007EE900AB8EE670A07EECE
:104C7C00903AF8EEE77A91F9163067EEA57A30EEB5
:104C8C00477A06EE103AB7EE000AA7EEA60A4B8A50
:104C9C00BAEEC66AF0EE407A26EE266A00EE103ABC
:104CAC00E6EE267ACB7DBBEEC70A20EE270A20EE75
:104CBC00070A07EE103A91F9183007EE903AFAEE1F
:104CCC00E57AB8EE477A67EEA67AE7EE257A67EED4
:104CDC00807AA7EE800ADFED0B7AB4EEE70AF1EEEC
:104CEC0010FA07DCB5EEC00AF1EE10FA04D59FED10
:104CFC00060A7047B0EE670A704700BF0000A04577
:104D0C00000080380000C8420000000091F9193002
:104D1C00DFED306A9FED307A9FED306A07EE903A06
:104D2C00B1F91A30F8EEE77AB0F5C87FA7EEA67A9B
:104D3C0028BF4FF4C87082B007EE903ADFED286AB6
:104D4C0091F91C30FAEEE87AE7EE866A07EE900AE3
:104D5C00B7EE006AF8EE677AF0EE465AE7EEA65A1E
:104D6C0007EE903A91F90E3006EE903AFAEECB7AC5
:104D7C00F8EEE66A91F83C3067EEA67AE5EE877AB3
:104D8C0007EE103AB8EE477AF1EE005A37EE257A74
:104D9C0091F93D30C5EE876AF0EE465A26EEA77AB9
:104DAC0007EE903ADFED0F6AF8EEE77AE7EEA65AD7
:104DBC00FBEE097AC6EE256AE7EE267A9FED0A7AB3
:104DCC0067EE877AFCEEE77ACDED017A9DF8040068
:104DDC0002B070470000803D000044426F12033A5D
:104DEC0075021A3B6F12033B9A99594048B1036CF8
:104DFC003BB1436C2BB1806CB0FA80F0400940425F
:104E0C0070474FF0FF30704710B504461046FFF75F
:104E1C00EDFF50B923788B4206D9217092F84D30B2
:104E2C0043F0010382F84D3010BD4FF0FF30FBE72B
:104E3C0073B502460846FFF7D9FF0C46054640BB42
:104E4C0012F0800F4A7B14BF002310239A4220D00B
:104E5C004B730E6C4B6801220DF10701F320B04728
:104E6C0084F84C0098B99DF80720637B666C22F09F
:104E7C00100203F0100313438DF80730012263680E
:104E8C000DF107017320B04784F84C0008B16FF0A6
:104E9C000105284602B070BD37B50446FFF7A6FFE2
:104EAC0070B9256C636801220DF10701F320A84746
:104EBC0084F84C0030B99DF8073003F0100363738D
:104ECC0003B030BD6FF00100FAE70000F0B52D4CD7
:104EDC009FED2D7A26460F4606EE900A06EE102A16
:104EEC000FCEA1B06D460FC50FCE0FC50FCE0FC59F
:104EFC0096E80F00403485E80F000FCC10AD0FC5BD
:104F0C000FCC0FC50FCC0FC594E80F00B8EEC66AD6
:104F1C0085E80F0020AB03EB8703F1EE045AF0EEAB
:104F2C00477AE6EE257A9FED197A53ED205A9FEDDC
:104F3C00186AF8EE666AB7EE000A76EEC76A85EE76
:104F4C00867A37EE007A27EE277AC6EE877A13ED4B
:104F5C00107A77EE806AC7EE067A0123BB409FED8C
:104F6C000D7A77EE807A27EE877A07EE903AF8EE94
:104F7C00E77A67EE277A66EEA77A80EE270A21B0E9
:104F8C00F0BD00BFFCBA0B000080A7440000004439
:104F9C000000C842BD3706342DE9F04387B01C46EB
:104FAC0007460D4616460021102202A8019106F074
:104FBC00D0FC2046FFF71AFF90BB8FB385B3731E4E
:104FCC00092B30D8013D0DF1040807EB06094F45BC
:104FDC0012D170B97200656C63689DF80400013AD7
:104FEC000DF10501A847002884F84C0018BF6FF09C
:104FFC00010007B0BDE8F083227B3B7832B918463C
:10500C002146FFF715FF3B7803F07F0388F800304B
:10501C0015F8013F88F80130013708F10208D6E78E
:10502C004FF0FF30E5E76FF00300E2E72DE9F042C7
:10503C00064618461D46FFF7D9FE0F469146044614
:10504C00C8B9C1B12B7B3BB929463046FFF7F0FEFE
:10505C00044608B946F0800630466B682E6C4A460A
:10506C003946B047002885F84C0018BF6FF0010492
:10507C002046BDE8F0824FF0FF34F9E737B5E02366
:10508C008DF80630B62305468DF80730FFF7AEFED7
:10509C00044680B92B7B8BB12B460DF10701012205
:1050AC000DF10600FFF778FFAB6C6968044642F21D
:1050BC00107098474CB1204603B030BD2846FFF71E
:1050CC00EBFE04460028F6D1E6E72B7B002BF2D151
:1050DC002846FFF7E1FE0446EDE710B58CB0044618
:1050EC00FFF7CCFF0346002840F09B8023460122AB
:1050FC002146D020FFF79AFF0346002840F091800C
:10510C002278612A40F090808DF804002346012219
:10511C0001A9F020FFF78AFF0346002840F08180A8
:10512C009DF80430A3601722234601A98A20FFF7BB
:10513C007DFF0346002874D123460E220DF11B017E
:10514C00E120FFF773FF034600286AD123460522AE
:10515C000DF12901FFF76AFF0346002861D1BDF864
:10516C002320E283BDF8042022849DF8062084F8D5
:10517C002220BDF80820A284BDF80A20E2849DF804
:10518C000C2084F82820BDF80E206285BDF8102074
:10519C00A2859DF8132084F82E209DF8122084F807
:1051AC002F20BDF816202286BDF8182062869DF8A7
:1051BC001A2084F834209DF81C209DF81D0002F064
:1051CC000F0141EA001121829DF81B10120942EADD
:1051DC00011262829DF81E2022759DF81F206275B7
:1051EC009DF82020A2759DF82120E2759DF82220C3
:1051FC0022769DF827206276BDF8252062839DF8E3
:10520C00282022779DF82B20C2F3011284F83C2031
:10521C009DF8292084F83D209DF92D20121184F849
:10522C003E2018460CB010BD6FF00203F9E773B5C1
:10523C00742306460D468DF807302B4601220DF1DE
:10524C0006017420FFF7F2FE0446B8B99DF806205B
:10525C00930716D022F003028DF806202B460DF191
:10526C00060101220DF10700FFF796FEAB6C696891
:10527C00044642F210709847002CDED0204602B053
:10528C0070BD002EFAD022F0030206F00306324362
:10529C008DF806202B4601220DF106010DF10700B9
:1052AC00FFF77AFE0446E9E713B50B46044660B1F6
:1052BC0001220DF107017420FFF7B8FE9DF80730AD
:1052CC0003F00303237002B010BD4FF0FF30FAE778
:1052DC00F0B54D4B87B0064618681B7902908DF8D7
:1052EC000C300DF1070000230D4604938DF814309B
:1052FC00FFF7DAFF0446002840F083802946FFF7C9
:10530C0096FF0746044666B94FF0FF349DF8070038
:10531C0020B11CB92946FFF78AFF0446204607B086
:10532C00F0BD0028F2D19DF808002B46052204A9F7
:10533C00FFF77CFE85F84D7004460028E6D12A461E
:10534C000721F01CFFF760FD04460028DED1052183
:10535C00701CFFF759FD04460028D7D1B01CFFF78D
:10536C0053FD04460028D1D13046FFF74DFD0446CD
:10537C000028CBD10821301DFFF746FD044600283C
:10538C00C4D1F3789DF8142071789B0022F01C0294
:10539C0003F01C0313435AB29DF8133003F01F03A0
:1053AC0043EA4113B178890001F01C0123F01C037E
:1053BC000B438DF8133031789DF8113001F0070153
:1053CC0023F007030B4331798DF811309DF8103021
:1053DC00082912BF00200120002102F01F0203F057
:1053EC007F0342EA411243EAC0138DF814208DF872
:1053FC00103005222B4604A902A8FFF7CDFD044668
:10540C0084E7002E82D17FE7A0BB0B0037B51E4B83
:10541C000546D3F88000B3F884300090ADF8043022
:10542C000C4611B9002003B030BD0521601CFFF7FC
:10543C00EBFC0028F6D1A01CFFF7E6FC0028F1D10C
:10544C002046FFF7E1FC0028ECD1637802AA134454
:10545C00A27813F8080C02AB1A44022D12F8083C7F
:10546C001844237802AA134413F8083C034440F26E
:10547C00AB7000FB03F30BBF03F5865003F5A5508F
:10548C0040180D30CFE700BFFCBA0B002DE9F04FF0
:10549C00B5B01F4622AB019204460D461846482271
:1054AC00002106F056FA28AB0A900B9338462EAB27
:1054BC000C93FFF79BFC064628B14FF0FF342046B7
:1054CC0035B0BDE8F08F002DF7D0012C40F0DC801A
:1054DC00159001460D2216A806F03BFA05263B4610
:1054EC00112215A91D20FFF7A1FD9DF85520AA70CA
:1054FC009DF8562002929DF8572003929DF8582053
:10550C0004929DF85920059204469DF85A209DF866
:10551C00540006929DF85C20079200F080039DF8E1
:10552C005D202B7000F00F00687008929DF86120D0
:10553C000992BA689DF862A09DF864809DF85B9012
:10554C009DF863B0012A13BF0AF0200208F0200274
:10555C001A4313430CBF08F010030AF01002134354
:10556C002B701B0679D5002C7DD13B460122E91C02
:10557C005A30FFF75BFD0446002874D16878503030
:10558C003B460122291DC0B2FFF750FD04460028FE
:10559C0069D1687864303B460122691DC0B2FFF7BF
:1055AC0045FD044600285ED1069B4FEA191040EADF
:1055BC000310059B394640EA0330FFF72FFA049B92
:1055CC0085ED020A1809039B40EA0310029B40EA8E
:1055DC000330FFF763FADDE9072385ED030A43EA9D
:1055EC000220FFF725FB85ED040ABB68012B26D1B1
:1055FC004FEA981343EA8B0B08F00F084FF4802303
:10560C0023FA08F307EE103ADFEDB47AB8EEC77A56
:10561C000BEB4B0B0BF5206B27EE277A07EE90BAB2
:10562C00F8EEE77AC7EE276AC5ED056A95F9003002
:10563C00002BB5BF01260026002402241EE0099B86
:10564C0097F93E204FEA9A100AF00F0140EA8300C6
:10565C00FFF73CFC85ED050AE8E724B9BB6C7968DB
:10566C0042F210709847013E16F0FF0604D0002C51
:10567C003FF435AF002601E0002CD7D0019B002B66
:10568C003FF41BAF1E701AE7023C012C00F2238181
:10569C00014615902F2216A806F05BF91A22314606
:1056AC000EA80D9606F055F93B46332215A91D2080
:1056BC00FFF7BCFC04468246002840F09A803B462B
:1056CC001E220DA95020FFF7B1FC15AEDFED833A79
:1056DC000446002840F08D800AAB96F8039053F8EE
:1056EC002A80737888F80230B378B079327A3178BE
:1056FC0096F80EB04FEA091949EA0339337949EAA9
:10570C0013197379000140EA0330F37940EA13135B
:10571C0007EE903A737AB86843EA0223727B0292DE
:10572C00F27B0392327C0493012801F00F0C21F0E0
:10573C007F010CBF02F0200E0BF0200E49B20BBF04
:10574C0041EA0E0141EA0E0102F0100E0BF0100EB0
:10575C0034AB41EA0E0188F8001003EB0C0188F819
:10576C0001C011F89C1C88F8041003EB0C019C443C
:10577C0011F8921C88F803101CF8881C88F8051086
:10578C0017EE900A3946FFF749F9484688ED020AA8
:10579C00FFF784F9049B88ED030A1846FFF748FAD3
:1057AC00BB6888ED040A012B3AD10399930943EAAB
:1057BC00810302F00F024FF4802121FA02F207EE6E
:1057CC00902A03EB430303F52063F8EEE77A07EE28
:1057DC00103A67EEA37AB8EEC77A87EE870A0AF119
:1057EC00010ABAF1030F06F1110688ED050A7FF4E0
:1057FC0073AF0DF1280E724603230026002C51D1F5
:10580C0052F8041B91F900100029B8BF013603F1BE
:10581C00FF33B8BFF6B213F0FF03F1D1704639E095
:10582C00029B97F93E204FEA9B100BF00F0140EAC8
:10583C008300FFF74BFBD2E74FF00209DCF8007056
:10584C0051F8043B97F900A093F90020BAF1000F2E
:10585C0016DA002A16DA97F802A09A78A2EB0A0256
:10586C0092B202F1020A1FFA8AFABAF1010F02D9B6
:10587C0012B2022A06DDCCF8003041F8047C01E0BB
:10588C00002AF8DBB9F1020FD6D1B8F1020F4FF0B4
:10589C00010307D001335FFA83F8844604300146D4
:1058AC00C146CBE74FF000084FF018097CB95EF801
:1058BC0004CBBCE80F0009FB08570FC79CE803009A
:1058CC0008F10108B8F1030F87E80300EFD1002EAF
:1058DC0008BF0224D2E60124D0E600BF002474499C
:1058EC002DE9F04F93B047F2701306461746ADF80A
:1058FC0014300D46002900F0938011460020FFF76C
:10590C0096FC0446002840F0F5808D4A6E23D2F8B0
:10591C008600D2F88A108DF8133006AB03C3B2F8A8
:10592C008E201A8009AB03C31A800CAB03C31A80F8
:10593C000FAB03C3022E1A800DF118080DF12409C8
:10594C000DF13C0A00F09E80032E64D0012E40F035
:10595C00F5805A2368888DF818303946FFF7D6F948
:10596C0064238DF83030AB888DF82400B3F57C6F50
:10597C004FD23F2BE2B204F1010448D803EB82135F
:10598C00DBB28DF83C304FF0000A3B4632464946BC
:10599C004046FFF701FB0446002840F0AB803B4635
:1059AC0032460FA90CA8FFF7F7FA0446002840F07E
:1059BC00A1803B4602220FA97020FFF737FB04465B
:1059CC00002840F097802A78012A40F0B480BB6808
:1059DC00012B08BF02229DF83C3023F0080343EA58
:1059EC00C4049DF83D308DF83C4023F00F0343EA8E
:1059FC000A0323F0300343EA02138DF83D300222F0
:105A0C003B460FA905A8FFF7C7FA044672E09B08AE
:105A1C00AFE7FF23B5E7D5F80CB0BBF1000F02D10F
:105A2C004FF0FF3466E0AB68002BF9D02E7CE2B26D
:105A3C00964201D8B246A8E702F15A0108F80410C0
:105A4C00394633F814000193FFF760F90CAB64325C
:105A5C001A5509F804003BF81420019BB2F57C6F31
:105A6C000ED200213F2AC8B201F1010106D802EB87
:105A7C008012D2B20AF804200134D8E79208F1E778
:105A8C00FF22F7E7D5F80CB0BBF1000FC8D0AB681C
:105A9C000193002BC4D06B8A2E7CCDF808A0002B70
:105AAC0008BF032400225FFA82FA564526D840F23A
:105ABC00827293423DD84FF47A72534340F2DD1216
:105ACC00B3FBF2F300229BB23F2BD1B202F10102E5
:105ADC002DD803EB8113DBB28DF8123054B93B4651
:105AEC0001220DF112010DF11300FFF755FA0446D6
:105AFC0000289FD0204613B0BDE8F08F0AF15A0160
:105B0C0008F802100393019B394633F81200FFF793
:105B1C00FDF80CAB0AF1640A03F802A009F80200C4
:105B2C00029B3BF81210D154039B0132BBE79B083C
:105B3C00CAE7FF23D0E7024601244CE70124D9E74A
:105B4C00FCBA0B007047704710B510210446FEF7E5
:105B5C005AFF204610BD10B548210446FEF753FFEE
:105B6C00204610BD07B5036C8DF8071043B1012218
:105B7C000DF10701184602F0E1FC03B05DF804FBDF
:105B8C00406C0028F9D001220DF1070103F086F9D1
:105B9C00F3E700002DE9F84F82462DED028B10EE55
:105BAC00100AB0EE408A8B46FEF796FB02460B4677
:105BBC0004460D4606460F46FEF780FE38B14E49A8
:105BCC00BDEC028B5046BDE8F84F04F0A9BE25F0A1
:105BDC0000494A4B4FF0FF3220464946FEF76EFE15
:105BEC0048B9464B4FF0FF3220464946FEF748FE77
:105BFC0008B94349E4E7DFED437AB4EEE78AF1EE06
:105C0C0010FA01DD4049DBE7DFED407AB4EEE78ABC
:105C1C00F1EE10FAF6D4B5EEC08AF1EE10FA06D514
:105C2C002D21504604F080FE264605F100473849E8
:105C3C00384D5FFA8BF84FF00009002000245FFA12
:105C4C0089F3984506D922462B46FEF7C7FC09F185
:105C5C000109F4E732463B46FEF7E0F90D460446EF
:105C6C00FEF76AFE0646FEF715FB02460B4620467B
:105C7C002946FEF7D1F90A2204460D465046314614
:105C8C0004F071FEB8F1000F31D02349214F50467A
:105C9C0004F046FE0026B8F1000F28D032463B46F1
:105CAC0020462946FEF770FB04460D46FEF71CFE07
:105CBC00B0F1000919DA2D21504604F035FEC9F176
:105CCC0000010A22504604F04EFE4846FEF7F2FA56
:105CDC0002460B4620462946FEF79EF908F1FF388E
:105CEC0004460D465FFA88F8D5E74946E9E7BDEC6E
:105CFC00028BBDE8F88F00BFA6BB0B00FFFFEF7F48
:105D0C00AABB0B00FFFF7F4FAEBB0B00FFFF7FCF8B
:105D1C000000E03F00002440B2BB0B000EB403B502
:105D2C0003AB002153F8042B019304F03AFE02B0AC
:105D3C005DF804EB03B0704773B50446084622794E
:105D4C00A36832B1A3B90B4902B0BDE8704004F0AE
:105D5C00E7BD094A267B094D0949647B012E18BF12
:105D6C002946CDE900140749FFF7D8FF02B070BDF2
:105D7C00054AEFE7C5BB0B00BCBB0B00C1BB0B005E
:105D8C00BDBB0B00DBBB0B00B4BB0B0070B5154BE4
:105D9C0086B00024CDE9043405468DF80C108DF83E
:105DAC000D4000F28C4606AB13E90E00304604F0B1
:105DBC0055F895F8A234C5F8886483B9009301238B
:105DCC001A463146284603F079FD48B9009003463F
:105DDC00D5F888140122284603F070FD00E0204617
:105DEC0006B070BD80F0FA027FB505F067FA4FF48B
:105DFC00165105F057FA0121052005F0D7FC0121B9
:105E0C00022005F0D3FC0121042005F0CFFC012178
:105E1C00032005F0CBFC0121072005F0C7FC012174
:105E2C00082005F0C3FC05F047FD01464E4801F083
:105E3C0095F84E4A4E4902A800F05EFE02A94A4867
:105E4C0001F0A4F84B4801F08BF9012276214A4865
:105E5C0001F010F848480122762101F00BF828B91E
:105E6C0005F02CFA454904F07CFDFEE7042142487C
:105E7C00434D444E00F0BEFF02213F4800F0CAFFE4
:105E8C0003213D4800F0D6FF02213B4800F0E2FF21
:105E9C0096224FF4A071384800F083FF00210320B4
:105EAC0005F095FC36480321FFF770FF03212846C7
:105EBC00FFF76CFF0446C0B905F000FA314604F058
:105ECC0050FD0121042005F082FC2146072005F03D
:105EDC007EFC0121082005F07AFC642004F0CEFD44
:105EEC0003212846FFF752FFE0E71F4902A801F003
:105EFC00AEF89DF80830244A2449254803F5FA6386
:105F0C0013609DF809200A609DF80A100160CDE924
:105F1C00002120482049214A04F014FB642004F09D
:105F2C00ADFD1F4B196829B11A4A1E4840F20923CE
:105F3C0003F080FC0021042005F049FC002108201E
:105F4C0005F045FC0121052005F041FC05F0B6F9F2
:105F5C00104904F0FCFC134803F059FC0121032008
:105F6C0005F035FC04B070BD14E00320F8BB0B0049
:105F7C0001BC0B0064DB032004DC03200DBC0B0014
:105F8C00BCE1032041BC0B0054DB032044DB0320A9
:105F9C0040DB032060E003205ABC0B0093BF0B00D6
:105FAC0074E6032020E00320F0B5ADF5217D3849DF
:105FBC00384C394D394E9CA801F049F89DF87022A7
:105FCC00374B3849384802F5FA621A609DF871323D
:105FDC000B609DF8721201609DF8730220609DF8B1
:105FEC0074422C609DF875523560CDE90010CDE9F6
:105FFC0002452E492E482F4D04F0A4FA9AA82E499A
:10600C0001F004F99A9B2B609B9B2C486B6000F071
:10601C00A9FE38B905F052F9294904F0A2FC0DF596
:10602C00217DF0BD274C04F081F82368C01A42F2A0
:10603C000F739842F3D904F079F800212060032003
:10604C0005F0C5FB2048204E204F0321FFF79EFE94
:10605C0003213046FFF79AFE0446C8BB05F02EF923
:10606C00394604F074FC0121042005F0B0FB2146F4
:10607C00072005F0ACFB0121082005F0A8FB6420EB
:10608C0004F0FCFC03213046FFF780FEE0E700BF84
:10609C0014E0032078E00320B4E10320B8E10320EE
:1060AC0054DB032044DB032040DB032070BC0B00DB
:1060BC00F8DF03205ADB032064DB032004DC03201D
:1060CC008EBC0B0080E00320BCE10320ABBC0B00BA
:1060DC000021042005F07BFB0021082005F077FB54
:1060EC00BD480321FFF752FE002800F0A180642078
:1060FC0004F0C4FCB94B196829B1B94AB94840F24B
:10610C00092303F097FB4FF47A7004F0B7FC0121DC
:10611C00052005F05CFB00210820B34C05F057FB73
:10612C000121072005F053FB642004F0A7FC204656
:10613C0004F001FCAD49204604F0F2FBAC492046CA
:10614C0004F0F5FB642004F099FC0A22298820460F
:10615C0004F009FCA649204604F0E9FB642004F095
:10616C008DFC0A226988204604F0FDFBA0492046DC
:10617C0004F0DDFB642004F081FC0A22A98820468F
:10618C0004F0F1FB9A49204604F0D1FB642004F0A2
:10619C0075FC0A22E988204604F0E5FB9449204668
:1061AC0004F0C5FB642004F069FC924800F0DCFDAF
:1061BC0002212046FFF7EEFC8D49204604F0B7FB88
:1061CC008C4800F0D8FD02212046FFF7E3FC8849FB
:1061DC00204604F0ACFB874800F0D6FD0221204697
:1061EC00FFF7D8FC8249204604F0A1FB814800F05F
:1061FC00D2FD0A220146204604F0B5FB7C4920461C
:10620C0004F095FB642004F039FC206C002800F0AD
:10621C00EF8202F0F7F8642004F030FC714803F0D0
:10622C00F6FA642004F02AFC0021052005F0CFFAD0
:10623C0005F044F804F07FFB05F040F86B496E4E16
:10624C0004F06EFB05F03AF8694904F070FB05F0B8
:10625C0035F80A22298804F086FB05F02FF86449EA
:10626C0004F065FB642004F009FC05F027F80A2211
:10627C00698804F078FB05F021F85D4904F057FBC0
:10628C00642004F0FBFB05F019F80A22A98804F03D
:10629C006AFB05F013F8564904F049FB642004F03E
:1062AC00EDFB05F00BF80A22E98804F05CFB05F025
:1062BC0005F84F4904F03BFB642004F0DFFB04F0CD
:1062CC00FDFF04464B4800F04FFD02212046FFF72E
:1062DC0061FC04F0F3FF464904F029FB04F0EEFFE7
:1062EC000446444800F047FD02212046FFF752FCCB
:1062FC0004F0E4FF3E4904F01AFB04F0DFFF04460F
:10630C003C4800F041FD02212046FFF743FC04F01D
:10631C00D5FF374904F00BFB04F0D0FF0446354899
:10632C0000F039FD0A220146204604F01CFB04F063
:10633C00C5FF2F49314C04F0FAFA642004F09EFB9F
:10634C000121022005F043FA33682A8824F813202F
:10635C00642004F093FB33686A8804EB43036420E5
:10636C00DA8404F08BFB3368EA8804EB4303642083
:10637C00A3F8722004F082FB3368AA8804EB430371
:10638C006420A3F84C2004F079FB1A48356800F01F
:10639C00FBFC04EB850585ED390A642004F06EFBEB
:1063AC001448356800F0E0FC04EB850585ED260A01
:1063BC00642004F063FB3368002101330220336056
:1063CC0005F005FA3368132B7FF429AE04F092F82C
:1063DC0000283FF424AE13E0BCE1032074E6032054
:1063EC0060E0032020E0032018E00320F8DF032006
:1063FC00C0BC0B0004DC03207CE0032084E0032001
:10640C000121022005F0E3F90121042005F0DFF958
:10641C002388D4F82C019993FDF75EFFCDE9960102
:10642C00D4F8E000FDF758FFCDE99401B4F87020E2
:10643C009392B4F896209292B4F84A209192A28C3E
:10644C009092D4F82801FDF747FFCDE98E01D4F8DE
:10645C00DC00FDF741FFCDE98C01B4F86E208B9286
:10646C00B4F894208A92B4F848208992628C88926D
:10647C00D4F82401FDF730FFCDE98601D4F8D8001B
:10648C00FDF72AFFCDE98401B4F86C208392B4F8AF
:10649C0092208292B4F846208192228C8092D4F879
:1064AC002001FDF719FFCDE97E01D4F8D400FDF7EA
:1064BC0013FFCDE97C01B4F86A207B92B4F89020EC
:1064CC007A92B4F844207992E28B7892D4F81C0139
:1064DC00FDF702FFCDE97601D4F8D000FDF7FCFE04
:1064EC00CDE97401B4F868207392B4F88E207292DE
:1064FC00B4F842207192A28B7092D4F81801FDF777
:10650C00EBFECDE96E01D4F8CC00FDF7E5FECDE94C
:10651C006C01B4F866206B92B4F88C206A92B4F8D3
:10652C0040206992628B6892D4F81401FDF7D4FE76
:10653C00CDE96601D4F8C800FDF7CEFECDE96401C3
:10654C00B4F864206392B4F88A206292E28F61926C
:10655C00228B6092D4F81001FDF7BEFECDE95E01EE
:10656C00D4F8C400FDF7B8FECDE95C01B4F86220A4
:10657C005B92B4F888205A92A28F5992E28A589270
:10658C00D4F80C01FDF7A8FECDE95601D4F8C000F3
:10659C00FDF7A2FECDE95401B4F860205392B4F893
:1065AC0086205292628F5192A28A5092D4F808019E
:1065BC00FDF792FECDE94E01D4F8BC00FDF78CFE40
:1065CC00CDE94C01B4F85E204B92B4F884204A9289
:1065DC00228F4992628A4892D4F80401FDF77CFE1E
:1065EC00CDE94601D4F8B800FDF776FECDE94401BB
:1065FC00B4F85C204392B4F882204292E28E41922D
:10660C00228A4092D4F80001FDF766FECDE93E01E6
:10661C00D4F8B400FDF760FECDE93C01B4F85A2083
:10662C003B92B4F880203A92A28E3992E289389249
:10663C00D4F8FC00FDF750FECDE93601D4F8B000DB
:10664C00FDF74AFECDE93401B4F858203392B4F882
:10665C007E203292628E3192A2893092D4F8F80068
:10666C00FDF73AFECDE92E01D4F8AC00FDF734FE6F
:10667C00CDE92C01B4F856202B92B4F87C202A9248
:10668C00228E299262892892D4F8F400FDF724FE18
:10669C00CDE92601D4F8A800FDF71EFECDE92401B2
:1066AC00B4F854202392B4F87A202292E28D2192ED
:1066BC0022892092D4F8F000FDF70EFECDE91E01E0
:1066CC00D4F8A400FDF708FECDE91C01B4F8522063
:1066DC001B92B4F878201A92A28D1992E288189223
:1066EC00D4F8EC00FDF7F8FDCDE91601D4F8A000C4
:1066FC00FDF7F2FDCDE91401B4F850201392B4F873
:10670C0076201292628D1192A2881092D4F8E80031
:10671C00FDF7E2FDCDE90E01D4F89C00FDF7DCFDA0
:10672C00CDE90C01B4F84E200B92B4F874200A9207
:10673C00228D099262880892D4F8E400FDF7CCFD12
:10674C00CDE90601D4F89800FDF7C6FDCDE90401AA
:10675C00B4F84C200292B4F872200192E28C999B0E
:10676C0000924FF45871264A264803F0F3FE642039
:10677C0004F084F9244B234819689991FEF7FCF82E
:10678C00224A12788DF808203C210022CDE9002104
:10679C0003461C4A99999EA804F06AFB9F9C7CB105
:1067AC006368013B63605BB9236820469B6898472C
:1067BC00A368013BA3601BB923682046DB6898479C
:1067CC0004F07CFD04F0B7F804F078FD0D4904F0FA
:1067DC00BEF804F073FD0E4904F0B9F80021022054
:1067EC00316004F0F4FF0021042004F0F0FF16E403
:1067FC00606C00283FF40FAD02F070FA0BE500BF9F
:10680C00C2BC0B0098DC0320D0DA032058DB032039
:10681C004ABF0B0038B51D4B1D4A01251D701D4B81
:10682C000024C3E900449A60284603F0BFFD1A4BCC
:10683C001A4AC3F890244FF42812C3F88044C3F8C2
:10684C008444C3F88844C3F88C4483F89454C3F844
:10685C009844A3F89C44C3F8A024A3F8A44483F858
:10686C00A644C3F8A84483F8AC440D4B0D4A5C60B5
:10687C00C3E910441A600C4800F03CFC05F01CF80D
:10688C00BDE838400146094800F0F8B958DB032050
:10689C000000FFFF48DB0320BCE1032068BF0B00B6
:1068AC0018E003207CBF0B0064DB032004DC032016
:1068BC0000220271C28080220281704737B50546E2
:1068CC001020CDE90021FEF79AF8044618B1DDE955
:1068DC00002100F02FFE012120462C6003B0BDE802
:1068EC00304000F043BE07B5130AC3720023817217
:1068FC000273CDE9003300F10A0101230322006881
:10690C0000F043FE03B05DF804FB10B5002A14BF81
:10691C0000224FF480720A43C1880A4301890A435A
:10692C00044642F400420121FFF7DDFF20464FF4FC
:10693C0000420321FFF7D7FF20460022BDE810409C
:10694C000221FFF7D0BF37B50546002305F80A1F13
:10695C00CDE90033044601231A462946006800F0AD
:10696C0014FE206801230222294600F05DFE608996
:10697C0040BA80B203B030BD10B500210446FFF719
:10698C00E2FF237918410BB900B210BD80B2B0F50B
:10699C00006F28BF40F47040F6E708B50121FFF7FF
:1069AC00D2FFC0F3C03008BD032910B504460FD880
:1069BC00084B002233F81110FFF7A7FF2046FFF712
:1069CC00ECFF0028FAD02046BDE81040FFF7D4BFFA
:1069DC00002010BD9ABF0B00002210B511460446D2
:1069EC00FFF793FF2046FFF7D8FF0028FAD0204688
:1069FC00BDE81040FFF7C0BF10B500224FF4405166
:106A0C000446FFF782FF2046FFF7C7FF0028FAD0A5
:106A1C002046BDE81040FFF7AFBF000030B50F4C6B
:106A2C0000230133DDB28D4204D214F8015B2A44F9
:106A3C0092B2F6E7022903D9830704BF013292B25E
:106A4C0000EBC001C31C00EBC10000EB8000C3F3E2
:106A5C008D0301381844104480B230BDA2BF0B0026
:106A6C0003784078303BDBB20A2B28BF002303EBC2
:106A7C008303303800EB4300C0B270471FB50023CE
:106A8C00CDE900338DF80C108DF80D200123022276
:106A9C0003A9006800F079FD05B05DF804FB10B5A2
:106AAC00002386B0CDE90033012304468DF80F1086
:106ABC001A460DF10F01006800F067FD01232068F4
:106ACC001A4605A900F0B0FD9DF8140006B010BDE3
:106ADC00B1F5FA6F83709DF80030C37028BFA1F533
:106AEC00FA619DF80430037128BF89B29DF8083013
:106AFC00017042704371704730B50D4685B0044645
:106B0C000868496801AB03C32889A97A1880997071
:106B1C000DF10D00FFF7A4FF9DF804302070413BF0
:106B2C00122B16D8DFE803F0321515461530151563
:106B3C00150A151539444215151540009DF80530F8
:106B4C00612B1FD09DF806306E2B0CBF062307233C
:106B5C00637002A8FFF784FFA0701068516801AB46
:106B6C0003C301A8FFF77CFFE0700DF10700FFF7EE
:106B7C0077FF20710DF10A00FFF772FF607120465C
:106B8C0005B030BD0123E3E70223E1E79DF80630B1
:106B9C00722B0CBF04230823DAE79DF80630722B06
:106BAC000CBF03230523D3E70923D1E70A23CFE73F
:106BBC000B23CDE70C23CBE708B58278417800781E
:106BCC00FFF72CFF07230630B0FBF3F3C3EBC30333
:106BDC00C01AC0B208BD08B503F0A0FABDE8084061
:106BEC0003F0ACBA1FB504461846012300930DF10F
:106BFC000F038DF80F4000F057FC80F0010040426D
:106C0C0040B204B010BD1FB51C4660F07F038DF878
:106C1C000F300023CDE9002320460B4601220DF155
:106C2C000F0100F063FC80F00100404240B204B060
:106C3C0010BD1FB504468DF80F4018460DF10F041A
:106C4C0001230193009400F0A0FC80F0010040426D
:106C5C0040B204B010BD1FB504468DF80F4001249E
:106C6C00CDE90024184622460B460DF10F0100F029
:106C7C00FAFC6040404240B204B010BD0022C0E9B2
:106C8C000422026282848161704773B5046A0646ED
:106C9C0024B1838C1C44204602B070BD00F1280244
:106CAC00114601200192FEF7C2FA0028F3D1019A95
:106CBC0006F178010120FEF7A9FBB6F884304FF4F9
:106CCC007A7404FB030503F031FAB5FBF4F330627C
:106CDC00B38410FA83F4DEE738B5046A3CB1858CD2
:106CEC0003F024FA2C44201A20EAE07038BD4FF04F
:106CFC00FF30FBE730B589B00546FFF7C6FF78B328
:106D0C002846FFF7E9FF002802DD400003F0B6FE3D
:106D1C0000242C62AC8405F128030DF1070202A9B2
:106D2C000120FEF7B3FBD0B99DF80730ABB1049B43
:106D3C00DDED057A2B60069BAB609DF80830FCEE10
:106D4C00E77A13F03003C5ED017A17BFDDED077A52
:106D5C00EB60FCEEE77AC5ED037A012000E02046FB
:106D6C0009B030BDFFF7C6BF10B50446FFF7FAFFF8
:106D7C0094ED000A10BD10B50446FFF7F3FF94ED37
:106D8C00010AB8EE400A10BD10B50446FFF7EAFF41
:106D9C0094ED020A10BD10B50446FFF7E3FFE0685E
:106DAC0010BD08B501B16AB9002380F8803000F13C
:106DBC00280200F180010120FEF792FDB0FA80F06C
:106DCC00400908BD012380F88030A0F88210A0F89B
:106DDC008420ECE7082908B50AD880F87C1000F16B
:106DEC0028017830FEF774FAB0FA80F0400908BD3B
:106DFC000020FCE7052908B50AD880F8791000F1C5
:106E0C0028017830FEF764FAB0FA80F0400908BD2A
:106E1C000020FCE7052908B50AD880F8781000F1A5
:106E2C0028017830FEF754FAB0FA80F0400908BD1A
:106E3C000020FCE7052908B50AD880F87A1000F183
:106E4C0028017830FEF744FAB0FA80F0400908BD0A
:106E5C000020FCE7072908B50AD880F87B1000F160
:106E6C0028017830FEF734FAB0FA80F0400908BDFA
:106E7C000020FCE7F8B5044640690F46164600288A
:106E8C004FD1206910B11021FDF7BDFD1020FDF789
:106E9C00B6FD054618B1A269394600F04BFB2561D9
:106EAC000121284600F062FB08B90020F8BD01233F
:106EBC0084F834302369E362234BA366234B84F8B4
:106ECC002870E366192384F8363004F12805204B2A
:106EDC0023672846FEF701F90028E6D186B3022184
:106EEC002046FFF7B7FF08212046FFF773FF02216A
:106EFC002046FFF78FFF03212046FFF79BFF04215D
:106F0C002046FFF777FF96224FF4A0712046FFF73B
:106F1C0048FF29460120FEF78AF9B0FA80F04009B3
:106F2C00C4E700F0A4F90028BFD0002384F828306F
:106F3C0084F834306369E362064BA366064BC0E702
:106F4C0032463146E2E700BF636C0B003F6C0B002E
:106F5C00E36B0B00136C0B00F16B0B0070B505466B
:106F6C0000680E4610B11021FDF74DFD1020FDF705
:106F7C0046FD044618B13246682100F0DBFA2C605D
:106F8C0020460121BDE8704000F0F0BAF0B54B7915
:106F9C0085B00A24B3FBF4F202EB4202002703EBA8
:106FAC004203CDE902778DF809300B79B3FBF4F28B
:106FBC0002EB420203EB42038DF80A30CB78B3FBB1
:106FCC00F4F202EB4202064603EB420308460D467E
:106FDC008DF80B30FFF7F0FD031E08BF0723B3FB42
:106FEC00F4F000EB400003EB40038DF80C30AB7871
:106FFC00B3FBF4F202EB420203EB42038DF80D30CB
:10700C006B78B3FBF4F202EB420203EB42038DF814
:10701C000E302B78B3FBF4F4082204EB44040DEB94
:10702C00020103EB4404CDE90077012330688DF8AD
:10703C000F4000F0AAFA0F213046FFF730FD0F2168
:10704C0000F07F023046FFF719FD05B0F0BDF0B53A
:10705C0087B00023054601938DF8103008460723AE
:10706C00009304AB19460122006800F0FCFA9DF86D
:10707C0010409DF814309DF811609DF816109DF885
:10708C0012009DF8152004F07F07C4F30214A4EB42
:10709C00840407EB4404E4B202944FEA131C340951
:1070AC00ACEB8C0CA4EB840403EB4C0306EB440616
:1070BC004FEA111C040902F07F0EACEB8C0CA4EB14
:1070CC008404C2F3021201EB4C0100EB4400A2EB6E
:1070DC0082020EEB4202F6B2C0B2C9B20090019627
:1070EC00DBB2D2B201F5FA612846FFF7F1FC284673
:1070FC0007B0F0BD70B50446051D00F1A406284686
:10710C001435FFF7D5FBB542F9D14FF4A472A28226
:10711C004FF4127222854FF45272A2874922A4F8BE
:10712C00502040F249124823A4F8642040F249222E
:10713C002380A4F87820002340F24932A370A37571
:10714C0084F82A3084F83E3084F8523084F8663063
:10715C0084F87A30A4F88C2084F88E30204670BDE8
:10716C002DE9F3410446051D064600F1A4074FF036
:10717C00010815F8041C019104F09EFB01990246CC
:10718C002846FFF79BFB08B105F8028C1435BD426D
:10719C00EFD1A034B07810B11436A642FAD102B0B7
:1071AC00BDE8F08108B5142359434218937833B1E4
:1071BC000B1D18445178FFF7F7FB80B208BD4FF652
:1071CC001940FBE708B590F87A303BB17C30FFF7FB
:1071DC0003FC07EE900AB8EEE70A08BD9FED010A22
:1071EC00FBE700BF00C079C408B590F852303BB142
:1071FC005430FFF701FC07EE900AB8EEE70A08BD21
:10720C009FED010AFBE700BF00C079C438B50D46FD
:10721C00044600212846FFF7C5FF2080642003F0B8
:10722C002DFC01212846FFF7BDFF6080642003F090
:10723C0025FC2846FFF7D8FFBCEEC00A642010EEF0
:10724C00103AA38003F01AFC642003F017FC2846C4
:10725C00FFF7B8FFBCEEC00A642010EE103AE380D2
:10726C0003F00CFC642003F009FC204638BD38B553
:10727C00044690F90E00411C09D0012180B204F0A3
:10728C0095FA94F90E00012180B204F0A0FA256859
:10729C0035B1284603F0F2F9012084F8340038BDEA
:1072AC0094F90F00012180B204F080FA637B94F909
:1072BC000F00012B94BF2946012180B204F087FAFC
:1072CC0094F91000421C09D0012180B204F06EFA2E
:1072DC0094F91000012180B204F079FA94F91100AC
:1072EC00431CD9D0002180B204F060FAD4E700002E
:1072FC002DE9F04F0446006885B00D4640B10023DF
:10730C00009313460A4603F05BFA05B0BDE8F08F14
:10731C00237BA068484FB7FBF0F7002B0B780CBF12
:10732C004FF0010B4FF0800B1BEA030F01EB020334
:10733C000CBF4FF001094FF00009FFB20393039B00
:10734C00AB42E2D095F800A05E464FF0000817B1B2
:10735C00384602F0E3FE637B13F0FD0F41D194F944
:10736C0010305A1C0FD01AEA060114BF0123002357
:10737C004B4508D06369606A1A6800292CD0024317
:10738C001A604FF00109A169E36A0A6813430B60A4
:10739C0017B1384602F0C2FE94F91130013306D011
:1073AC00E3691A68A36A1A4218BF46EA0808A16979
:1073BC00E36A0A6822EA03030B6094F91130013383
:1073CC0018BF85F80080237B002B32D17600F6B2F3
:1073DC00002EBCD10135B2E722EA00021A608946C0
:1073EC00D1E7A169E36A0A6813430B6017B1384609
:1073FC0002F094FE94F91030013308D06369616A8D
:10740C001A681AEA060F14BF0A438A431A60A16964
:10741C00E36A0A6822EA03030B6094F91130013322
:10742C00CBD0E3691A68A36A1A4218BF46EA080867
:10743C00C3E77608CCE700BF20A1070007B50122FF
:10744C008DF807100DF10701FFF752FF9DF80700AB
:10745C0003B05DF804FB03681BB14168184603F0E8
:10746C003BB97047006808B103F01CB9704790F93C
:10747C000E00431C03D0C9B280B204F0A8B9704707
:10748C0010B50446FFF7E7FF20460021BDE8104089
:10749C00FFF7EDBF10B501210446FFF7E8FF2046CA
:1074AC00BDE81040FFF7DEBF2DE9F0411C46064653
:1074BC000D461746FFF7E4FF069B04EB0308444513
:1074CC0008D12F44BD420BD015F8011B3046FFF7F5
:1074DC00B5FFF7E714F8011B3046FFF7AFFFEEE7F7
:1074EC003046FFF7D7FF0120BDE8F0812DE9F041D0
:1074FC000D4617469DF81C8006461C46FFF7C0FF3C
:10750C002F44BD420AD1069BE518AC420CD0414633
:10751C003046FFF793FF04F8010BF6E715F8011B53
:10752C003046FFF78BFFECE73046FFF7B3FF012047
:10753C00BDE8F08142600022027220220170C2601C
:10754C00704710B5037A044653B12178606804F093
:10755C000AF8606804F00FF8B0FA80F0400910BD2A
:10756C00012100F003F80028EFD1F8E738B5044604
:10757C0040680D4603F0C4FF0120207225B120465F
:10758C00BDE83840FFF7DDBF38BD2DE9F843DDE934
:10759C0008961F46C368154632449A4204468846EC
:1075AC0002D90020BDE8F8830178406803F0DBFFC6
:1075BC007EB9606803682A46DB6841469847854275
:1075CC00EFD16068394603F0D2FFB0FA80F0400981
:1075DC00E8E7B9F1000FECD0606803683246DB686D
:1075EC00494698478642DCD1E3E72DE9F041154640
:1075FC0004460E46D2B20178406803F0A0FF8542E3
:10760C000DD100271FFA87F8A84507F1010709D209
:10761C00606803685B69984706F80800F2E7002089
:10762C00BDE8F0810120FBE72DE9F84307468846C9
:10763C00164699460025B54212D2FA68741B94423C
:10764C0028BF1446331BAB4294BF4B460023224643
:10765C0008EB05013846FFF7C8FF10B12544EAE7EF
:10766C000120BDE8F88373B51D460023CDE9003336
:10767C009DF81C30069E0446FFF787FF40B101239E
:10768C0032462946204602B0BDE87040FFF7CCBF19
:10769C0002B070BD411E00F10A030020420842EA0C
:1076AC00C01011F8012F52FA80F08B42C0B2F5D104
:1076BC00704710B50446243002F048FC48B104F57C
:1076CC000D7002F043FC20B12068BDE8104002F0C0
:1076DC0048BA002010BD10B54901044600F0DCFD8D
:1076EC0028B120460021BDE8104000F0B6BD10BD09
:1076FC002DE9F04F06461546074689469A460FCEA9
:10770C008BB001AC0FC40FCE0FC4336823602B6851
:10771C006B600126564539D8A9EB060189B201A840
:10772C00FFF7D9FF834618B900200BB0BDE8F08FE6
:10773C004FF000085FFA88F25946384600F0E6FA36
:10774C00D5E90123934203D1B0FA80F04009ECE76C
:10775C007F28E9D8C4B2A4F16103192B02F101030B
:10776C006B60137898BF203CA3F1610298BFE4B220
:10777C00192A9CBF203BDBB2A342D5D108F10108EA
:10778C00B8F10D0FD6D10136F6B2C3E70120CCE724
:10779C002DE9F04F044616468A4698460FCC8BB01E
:1077AC0001AD0FC50FCC0FC523682B6006F112007D
:1077BC00FFF770FF336873608146012500274FF097
:1077CC000F0B454540D8AAEB050189B201A8FFF77C
:1077DC0082FF002839D0039A92F82430454543F0B3
:1077EC00010382F824304FF000020CBF45F0400337
:1077FC002B46037080F80BB0027380F80D90428317
:10780C00441CD6E90113994210D19FB10137FFB244
:10781C004FF6FF73042AD1B20FD8238001320D2A00
:10782C0004F10204EDD10135EDB2CAE74B1C7360D3
:10783C000B78EFE73B460127ECE70A2994BFA4F845
:10784C000330A4F80530E9E701200BB0BDE8F08F58
:10785C002DE9F04302464FF0203152F8123B866876
:10786C00C0F812105160C2F80710054618782E386F
:10787C0018BF01201F4613F8012B2E2AFAD0721EB6
:10788C00BA42964603D912F801392E2BF8D10022B0
:10789C004FF0070C114690464FF00809B74251D2F1
:1078AC003B782E2B07D1BE4513D14FF00A0C082480
:1078BC004FF010093BE0222B0BD07C2B09D0A3F10D
:1078CC005B04022C05D9A3F12A04052C06D82D2B18
:1078DC0013D0614513D800205F2321E0A3F13A04B3
:1078EC00052C03D9A3F121045D2C06D903F0C003A8
:1078FC00802BEED10C46002019E0614507D9BCF174
:10790C000A0F1ED0BE451CD30EF1FF37F2E7A3F1D0
:10791C006104192C0ED8203B49EA0202DBB2D2B228
:10792C004C1CE4B22944062C8B7400D82C740137FF
:10793C002146B3E7A3F14104192C98BF49EA080882
:10794C00EEE70020AB7C202B11D030B118EA020FEF
:10795C0018BF02226A74BDE8F0832A7CAB1801219F
:10796C007E2269749A743122DA740846F3E7002097
:10797C00F1E72DE9F0470E7C80460D466224002786
:10798C004FF07E0901F1120A02F0D0FB032E28BF42
:10799C0003263844331D87B2DBB207F00F02E91817
:1079AC00013B092ADBB294BF303237329E428A74D3
:1079BC004FEA1717F1D1AB19002183F8129040460A
:1079CC0000F06AFC0121404600F047FC014630B94A
:1079DC0098F80100B0FA80F04009BDE8F087037810
:1079EC0073B1C37A1B07EDD40B22504603F093FFFF
:1079FC000028E7D1601E10F0FF04C5D12046ECE74B
:107A0C000120EAE72DE9F04F2DED028B8BB00D46EE
:107A1C0004930B78079013F0D00F174605D1002074
:107A2C000BB0BDEC028BBDE8F08F079B1B78002BD5
:107A3C00F5D1D3680D220C33B3FBF2F3DBB2069312
:107A4C007B7C9A071DBF069B03F101095FFA89F342
:107A5C000123029328468B680593002100F01CFC3F
:107A6C0007F112034FF0000A08EE103AD0465446C4
:107A7C00D146CDF80CA0D3466E6900212846C6F33A
:107A8C004F1600F0EAFB00282FD16B78002BC6D1E3
:107A9C00049B9A05C3D503F00303013B012BBED80D
:107AAC00039B002C08BF33460393029B9C4209D2D4
:107ABC000021284600F0D1FB002840F085806B782F
:107ACC00002BACD1BDF80860A4B2A6427FD92846E1
:107ADC0000F0B2FA0028A2D0059B1B7904EB03142A
:107AEC00A4B2F2E74FF0010BC6E70278E52A00D00A
:107AFC0082B9039B002C08BF33460393029B9C4224
:107B0C003CBF0134E4B2002AC2D0E52A06D14FF0C2
:107B1C000009B1E7029B9C4238BF00242E2AF6D004
:107B2C00C17A0F2926D1B9F1000F19D1069B02F0A9
:107B3C001F084345A0D112F040099DD090F80DA02C
:107B4C009946B8F1010F97D1711C4B463A4689B250
:107B5C002846FFF7CDFD002808BF4FF000098BE742
:107B6C0008F1FF385FFA88F84245D0D1427B524584
:107B7C00E7D0CCE70B07CAD4B9F1000F0AD0B8F1A3
:107B8C00010F7FF44CAFFFF785FD50457FF447AFF5
:107B9C00CB460CE018EE101A0B2203F0BCFE0028AA
:107BAC007FF46AAF97F811B01BF0010B9AD1049BCC
:107BBC0019053FF534AF049B0798CDF800B0324659
:107BCC00294600F0B9FB2BE70134E4B26DE7BBF1B9
:107BDC00000F47D1029B03F1FF39039B5FFA89FB2E
:107BEC0053FA89F91FFA89F65B463A46314628461C
:107BFC00FFF7CEFD00283FF412AF31462846FFF7C1
:107C0C006AFD044600283FF40AAF2022002103F04D
:107C1C00A0FED7F812302360D7F8163063607B8B48
:107C2C0023813B7FA3727B7C03F018032373144BDB
:107C3C001B68F3B10DF123020DF1260109A8984739
:107C4C00BDF824302382BDF82630E3819DF8233023
:107C5C006373059B059A93F8243043F0010382F873
:107C6C002430A8E739462846FFF783FE0028B1D117
:107C7C00D5E645F62123238223836382E9E700BFFF
:107C8C0078E6032070B40D4611F8010B2028FAD0C9
:107C9C0000211D4E1560D1602846044614F8011BC6
:107CAC00F1B12F291CD0A1F120005F2828D8A1F117
:107CBC002200C0B21D2803D826FA00F0C0071FD43A
:107CCC0001F0BF003C281BD05C2919D02E29A4EB55
:107CDC00050003D0202901D0C2E902402046DCE790
:107CEC00D1680139FE290BD8044610F8011B202954
:107CFC00FAD02F29F8D01C60104670BCFFF7A8BD35
:107D0C00002070BC704700BF01010031042A04D868
:107D1C0001EB4202B2F8010070470A2A03D801EBCA
:107D2C004201888870470C2A9ABF01EB4201C8882F
:107D3C0000207047012970B505460C46164602D83E
:107D4C004FF0FF3070BDC3698B42F9D3C379202B40
:107D5C0014D18169022201EBD41100F50D7002F0EF
:107D6C001BF90028ECD0A40004F4FE740359EA6952
:107D7C009A4226BF336001200020E3E7102BDFD1AD
:107D8C00C1F3072381690222194400F50D7002F03A
:107D9C0003F90028D4D0640004F4FF74035BE6E715
:107DAC00012938B50C46154601D8002038BDC369E9
:107DBC008B42FAD3C379202B0FD18169032201EBBB
:107DCC00D41100F50D7002F0E7F80028EDD0A400F6
:107DDC0004F4FE7405510120E8E7102BE5D1C1F342
:107DEC00072381690322194400F50D7002F0D4F8C1
:107DFC000028DAD0640004F4FF740553EBE72DE996
:107E0C00F341C4688C4205460E46904601D30127C7
:107E1C0001E00C460027EB690134A34202D2C7B93A
:107E2C00EC68F4E7A64214D001AA21462846FFF7D5
:107E3C0081FF00280DDBEED0019B002BEBD107B1AD
:107E4C00EC606FF0704221462846FFF7A9FF074609
:107E5C0020B90027384602B0BDE8F08116B9C8F841
:107E6C000040F7E7224631462846FFF799FF0028E5
:107E7C00F5D1EEE773B505460C4601AA2146284616
:107E8C00FFF758FF061E10DB002221462846FFF79D
:107E9C0087FF50B1EB68A34284BF04F1FF34EC6060
:107EAC00019C002EE9D102B070BD0020FBE7F8B5B3
:107EBC0004461D4600230160C3710120E0604FF0B1
:107ECC00FF3004F12407A16284F82430E062C4F886
:107EDC00381284F83432C4F83C021646CAB1042A6B
:107EEC0001D90020F8BD1A461946384602F054F85C
:107EFC000028F6D006F18052013A00F5DF7013012C
:107F0C0000EB021211790029EBD0C35C5B06E8D1BF
:107F1C00956800222946384602F03EF80028E0D049
:107F2C00037C022BDDD1B0F80B30B3F5007FD8D138
:107F3C00417B21714B1E63710023A3710926012320
:107F4C00994207D0013ECCD0A2795B000132A271DC
:107F5C00DBB2F5E7C38A23610BB9436A2361C1899C
:107F6C0022692944A161B0F8113023815B0101EB36
:107F7C00420103F2FF13216201EB53216161B0F85E
:107F8C00133003B9036A6D1AA1791D44CD406B1CE3
:107F9C00E36140F6F4739D4202D80C23E371A0E731
:107FAC004FF6F4739D4285BFC36A236210232023CE
:107FBC00E3712263C4F84022012093E738B50446EC
:107FCC000D462422002103F0C4FCA560EB79102B94
:107FDC0003D0202B06D0002038BD40230120237075
:107FEC00A070F9E78023F9E7814230B507D00D4640
:107FFC0004460FCD0FC40FCD0FC42B68236030BDCA
:10800C0038B50246044652F8105F80682946FFF7DF
:10801C00F6FE40B1A3783DB943F04003A370A378BA
:10802C0063F07F03A37038BD22690135AA42F6D0F4
:10803C0023F04003F2E70000F8B5057815F0400591
:10804C00044602D000263046F8BD4269154B9A42D0
:10805C00F8D2FFF7D5FF06460028F3D0A2682369B3
:10806C0091795769023B8B401F44A0680379E9B2B0
:10807C008B420DD905223944243001F08DFF013596
:10808C000028DFD04FF40072002103F062FCECE713
:10809C0082794FF400739340626912FA83F363613F
:1080AC00D1E700BF00FE1F0010B5044680680A46E9
:1080BC002430A16901F070FF20B1A38803F00F03F5
:1080CC0000EB431010BD03780BB9FFF777BF00200E
:1080DC0070472DE9F04F2DED028B83780446D807BD
:1080EC0083B0884615466CD52378190733D5E369D8
:1080FC0062699B1A9D4228BF1D4604F1100308EECD
:10810C00103A2E464FF00009002E00F0A080227885
:10811C006769A0685306C7F3080B4FEA572123D5AC
:10812C00026A1144D4F808A0BBF1000F50D1B6F587
:10813C00007F4DD3DAF82C20914249D0B6F5806FF0
:10814C005FD2DAF82800424601F0C8FE002838D089
:10815C004FF400774FE05A06CFD5A3681A896369AC
:10816C00C3EB42139BB2C5E790F8059009EA0109ED
:10817C00BBF1000F08D1B9F1000F05D16FB9120690
:10818C004CBF026A226A2261A26821699079526905
:10819C000239814011444944C4E71307216905D5CC
:1081AC00A278570602D501312161EDE718EE102AAD
:1081BC00FFF7C0FD002804DBE6D1237813F0D00FC5
:1081CC0045D1637843F0020363704FF0FF303FE01A
:1081DC00CBF50077B7424FF000020AF1240028BF1C
:1081EC00374601F0D9FE0028EBD000EB0B013A46E4
:1081FC00404603F0A0FB63693B44B8446361F61B43
:10820C0082E7207840064FEA562306D49AF80400F9
:10821C00A0EB0900834228BF034691424FEA432753
:10822C0007D9DAF82800424601F02BFE0028E2D1EB
:10823C00C7E7C8188242F4D20AF12400CDE9001332
:10824C0001F084FEDDE900130028EAD1B9E7A81B90
:10825C0003B0BDEC028BBDE8F08F37B5436913F466
:10826C00F07F0446C3F3431500D099B901220DF1F8
:10827C0007012046FFF72DFF40B2012802D0002055
:10828C0003B030BD63691F33A0686361343000EB09
:10829C004510F5E72033F7E72DE9F0410D4601785D
:1082AC000769044681B14069A84206D03DB92561F1
:1082BC00A378656123F02003A370012006E00B076F
:1082CC0006D5E369AB420BD227610020BDE8F081F3
:1082DC004E0605D5A3681B89B5EB431FE8D9F3E718
:1082EC00D4F808C0A2789CF806300933DBB26E1EB5
:1082FC00520626FA03F603D5236A33442361D7E7E3
:10830C00421E22FA03F39E4200D398B90B064CBFCF
:10831C00DCF82030236A236104F11008002EC7D04A
:10832C002169A0684246FFF705FD002806F1FF36DB
:10833C00F4DCC9E7F61AEFE7F8B50F46164600214C
:10834C00242204461D4603F004FBB868A060A680F6
:10835C0000F1340206F00F063B6AE36002EB4612B2
:10836C00D37A19073FD403F037032370D17A11F075
:10837C00180F04BF43F0080323709DF81830E37006
:10838C0005F00303012B28D0022B24D05BBB6B051B
:10839C0029D40123A370A1788F0707D52378DE0693
:1083AC0021D4DF071FD443F02003237005F008030A
:1083BC000B43A370C36AA361938A518B6E0541EA88
:1083CC00034114D559B9A37863F07F03A3706B04F0
:1083DC0011D40120F8BD0323DCE70223DAE7FFF711
:1083EC0049FD0028EFD100202070A070F2E7216237
:1083FC00D369E361EBE7E1692046FFF74DFF002805
:10840C00E7D1F0E737B503780446002B39D090F963
:10841C000230002B2FDA0121FFF746FE054630B95A
:10842C00637843F001036370002003B030BD037820
:10843C00E52BF5D0237803F03703C37223781B07A1
:10844C0044BFE369C361236A4383638C83820E4B0D
:10845C001B6863B10DF103020DF1060101A89847E9
:10846C00BDF804302B836B82BDF80630EB82A37809
:10847C0003F07F03A370A068FFF71BF90028CFD08F
:10848C00D3E70120D1E700BF78E6032010B50446FE
:10849C00FFF7B8FF00232370A37010BD70B594B024
:1084AC001E4600230B930378019205460C4613B12C
:1084BC00002014B070BD0B7813F0D00FF8D01378E7
:1084CC002F2B12D1019A13782F2B02D1013201924A
:1084DC00F8E7A1681BB92846FFF7F5FDE9E70BA8FB
:1084EC00FFF76CFD0028E3D00BAC019901AB03AA9C
:1084FC002846FFF7C7FB0028DAD0019B1B787BB11D
:10850C00002303AA21462846FFF77CFA0028CFD087
:10851C000BA82946FFF768FD2846FFF7B7FFE3E7EE
:10852C00334603AA21462846FFF76CFAC1E719B176
:10853C0001F24441FFF7B2BF084670472DE9F047FE
:10854C008378884699070446914644D51A073DD44A
:10855C006369DB434B453ED34F4604F1100A626915
:10856C00002F00F09E80A068467916EA5226C2F3CE
:10857C0008050BD155B9216900293FD0A3785B06BA
:10858C0030D5E36993422DD901312161A06821696D
:10859C00837902399940436919443144002D39D10A
:1085AC00B7F5007F36D3B7F5806FC26A60D29142BF
:1085BC0002BF4FF0FF3380F82450C3624246806AFA
:1085CC0001F0BCFC38B14FF4007647E0C169FFF70D
:1085DC0063FE0028BCD1637843F0010363704FF055
:1085EC0000096BE05246FFF7A5FB0028F3DBCDD169
:1085FC002046FFF705FD0028C8D1ECE7236A3BB9FC
:10860C002046FFF7FDFC0028E5D023692362BDE777
:10861C002361BBE7C5F50076BE4228BF3E461DBBB5
:10862C006269E3699A4221D2A37813F0200F0CBF40
:10863C0001220522243001F0AFFC0028CBD02844C5
:10864C0032464146354403F076F9B5F5007F05D145
:10865C00A068243001F07AFC0028BCD06369334454
:10866C006361B044BF1B7AE70122E3E70522E1E72F
:10867C0003794FEA572C9B1B634528BF63469142F5
:10868C004FEA432608D801EB030C944582BF4FF008
:10869C00FF3280F82450C2624246806A01F021FC0D
:1086AC00DAE7E369934205D2E261A37863F07F03D2
:1086BC00A37003E0034B1B68002BF6D14846BDE8C2
:1086CC00F08700BF78E6032070B5956801F11E04B1
:1086DC00536831F8020F9D4203D1B0FA80F0400983
:1086EC0070BD5E1C56607E281B7813D8A3F1610602
:1086FC00192EC0B298BF203BA0F1610698BFDBB227
:10870C00192E9CBF2038C0B2984203D1A142DFD1B0
:10871C000120E5E70020E3E730B588680D684D607F
:10872C0000244B68834215D05A1C4A601A78A2F177
:10873C006103192B98BF203A4FEA540398BFD2B269
:10874C0043EAC43313449AB2C3F34E0343EAC2332D
:10875C009CB2E6E7401BC8600138FE280C828CBF37
:10876C000020012030BD2DE9F84F074693468A467C
:10877C0069B38D1ED7F83034AB4298BF002505F095
:10878C00070301249C40C5F3C809E4B2A8462E4651
:10879C00D7F82C14002201EB1631384601F0FCFB03
:1087AC0098B110F80930234206F1010612D1A6EB5C
:1087BC0008025A450FD1BAF1000F04D1BBF1010FD9
:1087CC0008BFC7F8208408F10200BDE8F88FD0F884
:1087DC002054CFE7B046B54218D0D7F83024B24277
:1087EC000ED9640014F0FF04DDD109F10103B3F5D7
:1087FC00007F4FF000094FF00104C9D29946D0E731
:10880C004FF000084FF400794646EEE70120DCE714
:10881C002DE9F84302390546D0F830041F468B1871
:10882C008342164640D8D5F82024C7B3914206D8C7
:10883C00934204D9834228BF0023C5F8203401F0A9
:10884C0007034FF0010909FA03F9D5F82C345FFA44
:10885C0089F903EB1138C1F3C804414601222846BB
:10886C00904401F099FBF8B10319494600F50070EA
:10887C001A780A4214BF01240024BC4214D04A4086
:10888C00013E1A7013D0490011F0FF01F0D10133F1
:10889C000C4698424FF001018946E9D1DDE791423F
:1088AC0038BFC5F82014CAE70020BDE8F8830120C2
:1088BC00FBE738B50C46D0F83834496890F8455485
:1088CC0019402368023BAB4003EB5123D0F82C1426
:1088DC0000F50470194401F05FFB18B16368C3F331
:1088EC000803184438BD38B5D0F8303401338B4206
:1088FC000C46154602D24FF0FF3038BDD0F8241488
:10890C00002201EBD41100F5047001F045FB0028A6
:10891C00F1D0A400C4F3080403595A1C1ABF2B60ED
:10892C0001200020E9E737B50546019100240199A3
:10893C0001AA2846FFF7D7FF002805DB04F1010444
:10894C00F5D1204603B030BD0024FAE770B54B6872
:10895C00D0F838441C4013444B6090F8453409332C
:10896C001444DBB206460D46DC406CB12B7A296808
:10897C001BB101312960013CF7E72A463046FFF76D
:10898C00B2FF0128F7D070BD0120FCE7012938B5F2
:10899C000C46154601D8002038BDD0F830340133D0
:1089AC008B42F8D3D0F82414012201EBD41100F53A
:1089BC00047001F0F1FA0028EDD0A400C4F308040F
:1089CC0005510120E8E72DE9F34107460C4688469E
:1089DC0001AA21463846FFF786FF061E04DA002559
:1089EC00284602B0BDE8F081002221463846FFF748
:1089FC00CDFF05460028F2D0621C16B1019B9342B4
:108A0C000AD00023A2EB080241463846FFF700FFCC
:108A1C000028E4D0DDF80480019C002ED8D1DFE7DB
:108A2C0070B504461E46002380F84434C0F8401448
:108A3C00416003704FF0FF30A060C4F8141284F84A
:108A4C001032C4F818021546D2B1042A01D90020FC
:108A5C0070BD1A46194604F5047001F09DFA002801
:108A6C00F5D005F18052013A00F5DF70130100EBEF
:108A7C00021211790029EAD0C35C5B06E7D1966833
:108A8C000022314604F5047001F086FA05460028F0
:108A9C00DDD01A490522033002F0AFFF0146002851
:108AAC00D5D195F86C30092BD1D12B6D3344C4F84A
:108ABC0024346B6DC4F82834AB6D3344C4F82C34B7
:108ACC00EB6DC4F830342B6EC4F8343495F86D303B
:108ADC0084F845340125093305FA03F3C4F83C3412
:108AEC00013BC4F83834C4F820042A462046FFF76A
:108AFC003AFE402384F844342846A9E7ADBF0B0066
:108B0C0010B50446D0F83414FFF70DFF94F8453433
:108B1C000933DBB2984010BD10B5047800234A0825
:108B2C0042EAC131C25C012B12FA81F189B208D13F
:108B3C00852C14BF0122032213441F2BEFD90846A6
:108B4C0010BD0122F8E710B5044601F0FFF950B151
:108B5C0004F5047001F0FAF928B1D4F84004BDE82A
:108B6C00104000F0FEBF002010BDF8B50446006AAE
:108B7C00A16901B101310122FFF7F5FD012805467C
:108B8C0002D800263046F8BD012301461A46206A59
:108B9C00FFF73EFE06460028F3D0A26994F8333066
:108BAC002AB943F0400384F83330A561EAE759064B
:108BBC0013D50132AA42F8D023F04003E16984F8BE
:108BCC003330A369206A8B4207D94F1C3A46FFF712
:108BDC00DDFE0028D5D03946F3E7206A4FF0FF328E
:108BEC002946FFF7D3FE0028CBD0A1690029DCD0A1
:108BFC00206A2A46FFF7CAFE0028D6D1C1E700003A
:108C0C002DE9F3410027DFF8D08004463E460022D0
:108C1C00F9B2204600F048FA054600283DD003780A
:108C2C00C02B44D0C12B21D0852B36D194F83130B8
:108C3C0003F037038380D8F8003083B10DF10302C1
:108C4C000DF1060101A898479DF80330BDF80620E8
:108C5C006B75BDF80430AA81EB812A826B82226A83
:108C6C0092F8103243F0010382F810323146284654
:108C7C00FFF752FF013794F83020FBB29A420646B8
:108C8C00C5D2206A012204F12401FFF712FE20B1A3
:108C9C004680206AFFF757FF30B994F8323043F022
:108CAC00010384F83230002002B0BDE8F08194F862
:108CBC003320437852064CBF43F0020303F0FD030C
:108CCC004370D4E90423C0E90223E3694361D4E986
:108CDC000223C0E90623C2E778E6032010B590F81A
:108CEC00313004460BB9012010BD90F9332090F8B7
:108CFC003330002A07DA03F07F0380F83330BDE805
:108D0C001040FFF77DBF006AFFF71DFF0028EAD176
:108D1C0094F8323043F0010384F83230E4E7F8B5CC
:108D2C0090F831305A0604462ED5006AFFF7E8FE5B
:108D3C00236AD3F83C341844B0F1806F47D22046F4
:108D4C00FFF713FF002842D0236AA56993F8452446
:108D5C00D3F82C34023D95401D4400260127206A8F
:108D6C0090F8453407FA03F3B3420FD90522A91939
:108D7C0000F5047001F010F948B34FF400720021B3
:108D8C0002F0E7FD0136EAE78068D1E794F831306C
:108D9C005B0617D494F8333063F07F0384F83330D8
:108DAC00D4E90232D0F83C145B1842F10002C4E959
:108DBC000232D4E90432D0F83C145B1842F10002C0
:108DCC00C4E904322046BDE8F840FFF787BF002015
:108DDC00F8BDF7B590F833209307044602D4002071
:108DEC0003B0F0BDC369002B56D012F0400281696C
:108DFC0037D0006AD4E9022690F845540935EDB213
:108E0C00013A46F1FF36C5F1200CA5F12007EA40E6
:108E1C0006FA0CFC42EA0C0226FA07F73A43013236
:108E2C00A9B1013B4D1C5B1A01951A4492B9D4E9C6
:108E3C000023C4E90223C4E9042394F8333063F01B
:108E4C007F0384F833302046FFF748FFC8E70193CF
:108E5C00E161EBE701990023FFF7DAFC0028E6D18A
:108E6C00BDE7B1B10192006A01AAFFF73CFD0028F1
:108E7C00B5DB07D0A169206A4FF0FF32FFF786FD02
:108E8C000028ACD001990029D1D0206AFFF79BFDB6
:108E9C00E4E70193C161F5E70120A1E72DE9F74F64
:108EAC0090F83330884699070446914665D51A07E1
:108EBC005DD44F4604F1180A4FF0010BD4E900536E
:108ECC00002F00F0D880206AD0F838140D40C5F37C
:108EDC00080625BBA169002962D094F833305B06E3
:108EEC0057D5D4E9023290F845040930013BC0B2A1
:108EFC0042F1FF32C0F1200E02FA0EFEA0F1200C5E
:108F0C00C34022FA0CFC43EA0E03E26943EA0C0369
:108F1C0013448B423AD82046FFF727FE68B3206AE9
:108F2C00A16990F84524023991404FEA552E01EB86
:108F3C005525D0F82C142944002E3DD1B7F5007FCF
:108F4C003AD3B7F5806FD0F818C279D2614502BF19
:108F5C004FF0FF3380F81062C0F818324246D0F858
:108F6C00140200F0EBFF40B14FF400754DE0D0E976
:108F7C00042300F0D3F900289BD194F8323043F04D
:108F8C00010384F832304FF0000986E00131A16111
:108F9C00C5E75246FFF7A7FC0028EEDBBBD0BEE7C7
:108FAC00E3693BB92046FFF7E0FD0028E5D0A36953
:108FBC00E361B4E7A361B2E7C6F50075BD4228BF13
:108FCC003D46002E3AD163690193236862689C4642
:108FDC0023699C45019B72EB03032FD3052200F5FB
:108FEC00047000F0D9FF0028C7D030442A4641460F
:108FFC002E4402F0A0FCB6F5007F06D1206A00F5E5
:10900C00047000F0A3FF0028B7D0D4E90032D4E9F3
:10901C000401EB1842F1000298429141C4E900327C
:10902C00A844A7EB0507BFF449AF94F8331061F0DF
:10903C007F01C4E9043284F833103FE70122CEE704
:10904C000BFA02F37D0AA3EB0E03AB4228BF2B46AF
:10905C0061454FEA432508D8CA18624582BF4FF0D4
:10906C00FF3280F81062C0F818224246D0F8140281
:10907C0000F037FFC7E7D4E90212A9429A4108D29F
:10908C00C4E9025394F8333063F07F0384F833302F
:10909C0003E0044B1B68002BF4D1484603B0BDE839
:1090AC00F08F00BF78E60320F0B500F124030446EE
:1090BC000F46164693E8070085B001AD85E807001A
:1090CC00206A7A012946FFF741FC012806D1206A63
:1090DC0032462946FFF7EDFB05B0F0BD0020FBE75B
:1090EC0010B50446FFF7FAFD002384F8313084F8FC
:1090FC00333010BD38B50D4690F83110044651B9D7
:10910C00382202F026FC4023012084F831302562FD
:10911C0084F8330038BD0020FCE70000F0B40C46A6
:10912C0011F8015B202DFAD0184F1460946026467C
:10913C0016F8015BDDB12F2D19D0A5F120015F29A7
:10914C0021D8A5F12201C9B21D2903D827FA01F1B2
:10915C00C90718D405F0BF013C2914D05C2D12D0DE
:10916C002E2D02D0202D00D096603446DFE7254608
:10917C0014F8011B2029FAD02F29F8D01D601146B4
:10918C00F0BCFFF7C9BA0020F0BC704701010031F8
:10919C002DE9F04F2DED028B90F83330DD0783B0C5
:1091AC0004468946164667D5580603D494F83130E0
:1091BC0019070BD5D4E90032D4E90410F51842F1A3
:1091CC000002A94270EB020238BFCE1A04F1180358
:1091DC0008EE103AB046B8F1000F00F09880206A03
:1091EC00D4E90032D0F8385405EA0307C7F3080B6A
:1091FC004FB913432CD194F831305A064CBFD0F8E8
:10920C003434E369A361D4F820A0A2699AF8450428
:10921C00DAF82C14951E854005EB57254FEA572C90
:10922C000D44BBF1000F30D1B8F5007F2DD3DAF827
:10923C001822954229D0B8F5806F45D2DAF814027D
:10924C004A46294600F04AFEB0B14FF4007730E0B0
:10925C0094F83330A1695B0602D50131A161D2E7E4
:10926C0018EE102AFFF73FFB002805DBCBD194F852
:10927C00313013F0500F4AD194F8323043F00203DE
:10928C0084F832304FF0FF3043E0CBF500774745A0
:10929C004FF0000229460AF5047028BF474600F03B
:1092AC007BFE0028E8D000EB0B013A46484602F062
:1092BC0042FBD4E90032DB1942F10002C4E900326E
:1092CC00B944A8EB070886E7012101FA00F04FEA40
:1092DC005827A0EB0C03BB4228BF3B4695424FEAF4
:1092EC00432708D9DAF814024A46294600F0C9FD8A
:1092FC000028DED1C0E7E9188A42F3D20AF50470DF
:10930C00019300F023FE019B0028EBD1B4E7A6EB00
:10931C00080003B0BDEC028BBDE8F08F2DE9F84FCF
:10932C001F4690F83130D0F8188004461646002BB2
:10933C005BD0D0E9000CBC4508BF904206D056EA81
:10934C00070205D10023A361C4E9006701204FE0A7
:10935C001A0704D5D4E90412B142BA4145D3D4F862
:10936C0020E09EF845140931C9B2751E47F1FF3A49
:10937C00C1F120090AFA09F9A1F12002CD402AFA1B
:10938C0002F245EA0905154394F8332012F0400F18
:10939C00C1F12009A1F1200A02D0E3692B44D2E7E4
:1093AC0010F1FF3B4CF1FF3202FA09F92BFA01F1F3
:1093BC0041EA090122FA0AF211438D4202D350EA22
:1093CC000C0217D15B064CBFDEF83434E369A361A1
:1093DC0004F11809002DB7D0A169206A4A46FFF79D
:1093EC0082FA002805F1FF35F4DCC4F8188000205F
:1093FC00BDE8F88F6D1AEBE72DE9F04F994690F820
:10940C0031308DB004460E461546002B41D191F8F3
:10941C00313013F0500F3CD009F00303032B38D03C
:10942C0009F0080A01334AEA030A002A38D0D7683F
:10943C000F230E370022B7FBF3F708460237002341
:10944C00FFB2FFF76BFF4FF0000BD846202204A9A8
:10945C003046FFF79DFE002800F0C680202818D16A
:10946C009DF910109DF8102000291EDBBBF1000F98
:10947C0005D13168A1F120030093B3690193BB4579
:10948C003CBF0BF101035FFA83FB5AB9002D40F08E
:10949C00AB804FF0000884F8318084F833806DE0A5
:1094AC000327D0E700208046D0E7B8F1000F27D182
:1094BC00BB4538BF4FF0000B852AF3D1382241460B
:1094CC00204602F046FA9DF814109DF8112084F8FD
:1094DC00302001F03702C90658BF42F0080284F868
:1094EC003120326A2262B26962623268203AA26228
:1094FC0096F83320C2F3801284F82C200120D2E796
:10950C00C02A50D1DDE906019DF8112084F833A062
:10951C009307C4E90401DDE90A0144BF4AF04002A3
:10952C0084F83320099AE261C4E9020155BB19F4AD
:10953C00006FAED119F4884F03D194F833309D07E6
:10954C0005D594F83130D806A3D4D907A1D419F491
:10955C00806F39D094F833309A079AD500220023C3
:10956C002046FFF7DBFE002893D02046FFF731FCA6
:10957C0000288ED094F833309B072ED440460DB083
:10958C00BDE8F08F2A68E9686A609DF81320914263
:10959C0088D1288ABDF81420A0EB020CDCF1000065
:1095AC0040EB0C007FE7C12A7FF47CAF2A4604A96C
:1095BC002046FFF789F800283FF475AFD5E9012163
:1095CC0091427FF470AFB2E719F4804FD2D0D4E956
:1095DC0004232046FFF7A2FECAE794F8313043F08B
:1095EC00200384F83130C9E719F4007F3FF451AF00
:1095FC001AF0020F3FF44DAF002D3FF44AAFBB45BC
:10960C0021D2202204A93046FFF7C2FD50B93046C2
:10961C00D6F81880FFF783FB00283FF43AAFC6F862
:10962C001880ECE720287FF434AFBBF1000F05D194
:10963C003268A2F120030093B36901930BF101038B
:10964C005FFA83FBDBE738220021204696F8338053
:10965C0002F07FF9336A2362282384F83130019BAE
:10966C006362C8F38018009B84F82C80A3622B687B
:10967C006B6007F1FF384FF000095FFA88F85FFA6A
:10968C0089FBBB4555D2012259462046FFF70CFDFC
:10969C00064600283FF4FDAE90F90020002AFFF6A4
:1096AC00F8AE2022002102F054F9BBF1000F20D1BA
:1096BC0085233370214B84F8308086F801801B6839
:1096CC008BB10DF10B020DF10E0103A89847BDF8FB
:1096DC000C307381BDF80E3033819DF80B3033752F
:1096EC0009F10109CBE745F621237381F3817382DC
:1096FC00F6E7BBF1010F0CD16AF07F03C022327088
:10970C0086F801B084F83330EB68F3702B8AB380A1
:10971C00E6E7C123337006F11E02D5E901318B4215
:10972C00DED0591C69601B7826F8023FB242F4D196
:10973C00D6E72046FFF7D2FA80461FE778E60320EB
:10974C002DE9F04196B098460023149390F83130EF
:10975C00019205460C461BB1002016B0BDE8F08105
:10976C0091F8313013F0500FF6D013782F2B1AD10B
:10977C00019A13782F2B02D101320192F8E7246A57
:10978C0023B921462846FFF7B5FCE6E7382200212D
:10979C0008A802F0DEF840238DF851300123109414
:1097AC008DF8533008AC019901AB03AA2846FFF79A
:1097BC00B5FC0028D0D0019B1B78D3B1002303AAA1
:1097CC0021462846FFF718FE0028C5D008AE2A46C9
:1097DC0005F13003344610685168374603C7083228
:1097EC009A423E46F7D1106838602846FFF778FC5D
:1097FC00D9E7434603AA21462846FFF7FDFDACE70F
:10980C0019B101F58961FFF79BBF0846704710B588
:10981C000446806B38B1FEF739FE0023C4E90E33E1
:10982C0000F0010010BDE06B10B1FFF759FCF4E73C
:10983C000120F2E773B504460D4611B9002002B0C1
:10984C0070BDCDE90023FFF7E2FFD5F88064DDE9B8
:10985C000023B6B12146242000F0B0F8DDE9002346
:10986C0010B1002101808170A06310B90020A063A9
:10987C00E5E7D5F88014FEF75AFE0028F6D0012053
:10988C00DDE7D5F88414CDE900230029D6D0214694
:10989C00382000F093F8DDE9002310B180F8316036
:1098AC004686E06310B90020E063C8E7D5F884145D
:1098BC00FFF7A6FF0028F6D0E1E700002DE9F047FE
:1098CC000026C0F8806405460F4601464FF49060B0
:1098DC00DDF8209090469A4600F070F8044680B16E
:1098EC004FF0FF33466006708360C0F8146280F856
:1098FC001062C0F8183280F8446480F87964A0F8DB
:10990C007A64C5F88444ECB14B465246394620463D
:10991C00FFF786F8B0B104F589663046FFF7E0FB37
:10992C0021463046FFF7E6FB60B1214B1A6802B9BD
:10993C001C60204BB8F1000F01D11A6802B91D60F0
:10994C00012033E00026C5F8846429464FF48D606D
:10995C0000F034F8044680B14FF0FF33C6718662D4
:10996C0080F82460C362C0F8386280F83462C0F8B2
:10997C003C32A0F8446480F84664C5F8804494B145
:10998C004B46524639462046FEF791FA58B104F23E
:10999C0044463046FEF77AFD21463046FEF793FBEF
:1099AC0008B1054BC2E70020C5F88004BDE8F0877C
:1099BC0070E6032074E603206CE60320084670472B
:1099CC0010B5044600F0B2FB201AC0F3C03010BD35
:1099DC00002303720123C1600382704738B5C57D33
:1099EC0004466DB900F008FB0123607DE375294640
:1099FC0000F0FAFA2046FF21BDE8384000F046BBE3
:109A0C0038BD10B5C37D044663B1407D012100F023
:109A1C00EBFAFF21204600F039FB204600F018FB42
:109A2C000023E37510BDF8B504460E46174600F04A
:109A3C007DFB00F5967085B2204600F00CFBFF28EC
:109A4C0060760BD12846FFF7BBFF0028F4D01E230D
:109A5C002046A375FFF7D5FF0020F8BDFE2801D0E6
:109A6C001923F5E73A463146204600F0F9FA6076BC
:109A7C0008B12623ECE7204600F0EDFA204600F072
:109A8C00EAFA0120E9E74FF40072FFF7CCBF38B5D2
:109A9C000C46054600F04AFB0444A4B2284600F0EC
:109AAC00DAFAFF2806D02046FFF78AFF0028F5D007
:109ABC00002038BD0120FCE738B50446154600F0FF
:109ACC00E5FA4FF400722946204600F0E3FAFF2134
